:103800000C947F1C0C94B71C0C949C1C0C949C1C5A
:103810000C949C1C0C949C1C0C949C1C0C949C1C48
:103820000C949C1C0C949C1C0C949C1C0C949C1C38
:103830000C949C1C0C949C1C0C949C1C0C949C1C28
:103840000C949C1C0C949C1C0C949C1C0C949C1C18
:103850000C949C1C0C949C1C0C949C1C0C949C1C08
:103860000C949C1C0C949C1C0C949C1C0C949C1CF8
:103870000C949C1C0C949C1C0C949C1C0C949C1CE8
:103880000C949C1C0C949C1C0C949C1C0C949C1CD8
:103890000C949C1C0C949C1C0C949C1C0C949C1CC8
:1038A0000C949C1C0C949C1C0C949C1C09021200F3
:1038B00001010080FA09040000000000000012016C
:1038C0001001FF000008C016DC0502010102000122
:1038D0000E035500530042006100730070001C038A
:1038E0007700770077002E006600690073006300A0
:1038F00068006C002E0064006500040309041124B4
:103900001FBECFEFDAE0DEBFCDBF11E0A0E0B1E037
:10391000E2E6F0E402C005900D92A630B107D9F7B7
:1039200011E0A6E0B1E001C01D92AD33B107E1F7AF
:103930000E94D81D0C942F200C94001CA82FB92F86
:1039400080E090E041E050EA609530E009C02D91C0
:1039500082279795879510F084279527305EC8F3C6
:103960006F5FA8F30895EADF8D939D930895CF9339
:10397000CFB7CF93DF93C3954F9BE9F74F9B0BC016
:103980004F9B09C04F9B07C04F9B05C04F9B03C077
:103990004F9B01C089C06F93C0912001DD27C95D95
:1039A000DE4F2F9365E54F9B03C02F916F91E6CFBC
:1039B0000F931F934F9320E040E15F9309B1047888
:1039C00007FB27F93F9350E03BE039C0147840648F
:1039D0002F77012F5F5F1EC0406819B114782F77D1
:1039E00052501FC0406409B12F770478D1F15F5F56
:1039F00000C023C0406219B12F77147891F15F5F46
:103A000000C025C004781027515012F45D5F0000FB
:103A1000115027952C3F19B1C8F614780127015091
:103A200027952C3FC8F64227499309B104781027FF
:103A30004F73115027952C3FA8F64695469519B11E
:103A4000147879F00127015027952C3F98F66B5A8E
:103A500060F3315009B1B0F600C011E01CBB002783
:103A600017C03B503195C31BD04011E01CBB0881EF
:103A7000033CF9F00B34E9F020911E011981110F7C
:103A80001213EDCF093651F10D3211F0013E39F725
:103A9000009325013F915F914F911F910F912F91BD
:103AA0006F91CCB3C0FD67CFDF91CF91CFBFCF91E6
:103AB000189520912501222369F3109123011123E8
:103AC00039F534303AF13093230120931F011091DE
:103AD00020013BE0311B309320011CC000912301E9
:103AE0000130B4F40AE53091010134FD14C00093B3
:103AF0000101C3E1D1E013C0052710E000C00000C0
:103B00000BB91AC0052710E0221F1DC010E021C00C
:103B10004AE502C032ED432FC4E1D0E032E01AB1F1
:103B200014685F9A0BB11AB954E820E865E320FFE6
:103B300005270BB9279517951C3FF0F66695B8F742
:103B4000B1F720FF05270BB9279517951C3FD0F635
:103B50002795179517FF052700001C3F0BB9B0F6F6
:103B600029913A9519F70B7710912401110FC6513D
:103B7000D0400BB911F010931E0111E01CBB00687E
:103B80001AB11B77402F4B7754E05A95F1F70BB9D8
:103B90001AB94BB97FCF1BB8F8941DBA10926900BF
:103BA00081E085BF15BEE0910A01F0910B010995F6
:103BB000CF93DF9300D000D01F92CDB7DEB788E15E
:103BC0000FB6F89480936000109260000FBE5F9A69
:103BD0005C9A04B600FC05C004B601FC02C014BE29
:103BE00006C014BE81E085BF82E085BF4C990E946B
:103BF000CB1D80916900836080936900E89A4C9B9B
:103C0000FECF579878942CE0E22EF12C3324339495
:103C100033E0732E45E0642E51E1552E4424439445
:103C200060EDC62E68E3D62E7EEDA72E78E3B72E84
:103C300080912301835087FD6BC1909120019701F2
:103C4000291B3109295D3E4F3B832A8390911F0137
:103C50009D3209F0D3C0883009F058C183EC8093BD
:103C600013018AE58093010110921201F90140814C
:103C7000842F80763181882309F44AC086E091E060
:103C800090932201809321013330E9F49381848160
:103C90002281203339F48370E82FF0E0EE5FFE4F8D
:103CA00080810DC0203A19F40E94192008C0203CE0
:103CB00029F4EA81FB8165810E94212080E08093C4
:103CC000090124E08FC0353009F18CEF830F863075
:103CD000B8F4EA81FB8182819381909310018093F3
:103CE0000F01393089F0EA81FB81868180930E01D2
:103CF0008581827080930D0130930C012FEF69C094
:103D0000323011F44092110120E06CC021E06AC011
:103D1000EA81FB81828110921C01311106C0109250
:103D20001D018CE191E022E04EC0353019F4809302
:103D300024013BC0363099F5EA81FB8193819130B3
:103D400019F48EEB98E304C0923041F48CEA98E3C6
:103D5000909322018093210122E11DC09330D1F480
:103D6000811108C08AEF98E390932201809321018A
:103D700024E011C0813031F4B0922201A0922101DF
:103D80002CE109C0823031F4D0922201C09221018D
:103D90002EE001C020E080E48093120118C038308A
:103DA00079F0393031F4809326018CE191E020E004
:103DB0000AC021E03A3009F020E08CE191E003C034
:103DC00086E291E021E090932201809321012F3F30
:103DD00049F447FF03C0EA81FB81268180E8809394
:103DE000120109C0EA81FB818781811104C08681AB
:103DF000821708F4282F2093000188C090911201A7
:103E000097FF84C090910E01982E981708F4992E70
:103E1000991990930E01882483949111812C80919B
:103E20000C01873018F4AA81BB813DC02A80022D85
:103E30001B81802F8219891508F03AC0F801619121
:103E40008F0180910F01909110019C012F5F3F4FD6
:103E50003093100120930F010E942120EACF80911E
:103E60000F01909110018F779927892B31F1F894E8
:103E7000E0910F01F09110018D919D910C01309214
:103E80005700E8951124789480910F0190911001CA
:103E900002969093100180930F018F779927892BB9
:103EA00011F1811017C08A2F2A81821B8915B8F25F
:103EB000882061F11092000129C0F894E0910F016F
:103EC000F091100170925700E895789407B600FCC5
:103ED000FDCFCDCF8A2FFA818F1B891520F38091DA
:103EE0000D01882301F3F894E0910F01F091100186
:103EF000329760925700E895789407B600FCFDCFA2
:103F0000F89450925700E8957894CDCF1092230101
:103F10008091010184FF7DC0809100018F3F09F4F1
:103F200078C0282E893010F098E0292E82198093CD
:103F300000018091130198E88927809313012220C2
:103F400009F459C08091120187FF31C080910E01A0
:103F5000821508F4282E821980930E0120910C01FD
:103F600044E151E04A01842F8819821508F043C0CA
:103F700000910F0110911001273060F0C8012983D2
:103F80004C835D830E9419204C815D81FA018083FE
:103F9000298104C0F8018491FA0180834F5F5F4F4B
:103FA0000F5F1F4F1093100100930F01DCCF209182
:103FB00021013091220186FF0BC0A4E1B1E0F9019B
:103FC000822D8A0F94919D9331968A13FBCF09C05D
:103FD000D901E4E1F1E0822D8E0F9D9191938E1332
:103FE000FCCF8FEF820D90E00196820F931F90938C
:103FF000220180932101622D84E191E00E94B31C93
:1040000084E0820D8C3019F09FEF90930001809333
:10401000010184E199B1947831F48150D9F710927B
:10402000240110921E0180911101882309F400CE11
:10403000DECDF999FECF92BD81BDF89A992780B562
:104040000895262FF999FECF1FBA92BD81BD20BDDC
:104050000FB6F894FA9AF99A0FBE01960895F8945B
:02406000FFCF90
:06406200FF5A1E958700C5
:0400000300003800C1
:00000001FF
